{
  "contractName": "FlashLoan",
  "abi": [
    {
      "inputs": [
        {
          "internalType": "address",
          "name": "kyberAddress",
          "type": "address"
        },
        {
          "internalType": "address",
          "name": "uniswapAddress",
          "type": "address"
        },
        {
          "internalType": "address",
          "name": "wethAddress",
          "type": "address"
        },
        {
          "internalType": "address",
          "name": "daiAddress",
          "type": "address"
        },
        {
          "internalType": "address",
          "name": "beneficiaryAddress",
          "type": "address"
        }
      ],
      "payable": false,
      "stateMutability": "nonpayable",
      "type": "constructor"
    },
    {
      "anonymous": false,
      "inputs": [
        {
          "indexed": false,
          "internalType": "enum FlashLoan.Direction",
          "name": "direction",
          "type": "uint8"
        },
        {
          "indexed": false,
          "internalType": "uint256",
          "name": "profit",
          "type": "uint256"
        },
        {
          "indexed": false,
          "internalType": "uint256",
          "name": "date",
          "type": "uint256"
        }
      ],
      "name": "NewArbitrage",
      "type": "event"
    },
    {
      "payable": true,
      "stateMutability": "payable",
      "type": "fallback"
    },
    {
      "constant": false,
      "inputs": [
        {
          "internalType": "address",
          "name": "sender",
          "type": "address"
        },
        {
          "components": [
            {
              "internalType": "address",
              "name": "owner",
              "type": "address"
            },
            {
              "internalType": "uint256",
              "name": "number",
              "type": "uint256"
            }
          ],
          "internalType": "struct Account.Info",
          "name": "account",
          "type": "tuple"
        },
        {
          "internalType": "bytes",
          "name": "data",
          "type": "bytes"
        }
      ],
      "name": "callFunction",
      "outputs": [],
      "payable": false,
      "stateMutability": "nonpayable",
      "type": "function"
    },
    {
      "constant": false,
      "inputs": [
        {
          "internalType": "address",
          "name": "_solo",
          "type": "address"
        },
        {
          "internalType": "address",
          "name": "_token",
          "type": "address"
        },
        {
          "internalType": "uint256",
          "name": "_amount",
          "type": "uint256"
        },
        {
          "internalType": "enum FlashLoan.Direction",
          "name": "_direction",
          "type": "uint8"
        }
      ],
      "name": "initiateFlashloan",
      "outputs": [],
      "payable": false,
      "stateMutability": "nonpayable",
      "type": "function"
    }
  ],
  "bytecode": "0x60806040523480156200001157600080fd5b50604051620028623803806200286283398181016040526200003791908101906200019d565b846000806101000a81548173ffffffffffffffffffffffffffffffffffffffff021916908373ffffffffffffffffffffffffffffffffffffffff16021790555083600160006101000a81548173ffffffffffffffffffffffffffffffffffffffff021916908373ffffffffffffffffffffffffffffffffffffffff16021790555082600260006101000a81548173ffffffffffffffffffffffffffffffffffffffff021916908373ffffffffffffffffffffffffffffffffffffffff16021790555081600360006101000a81548173ffffffffffffffffffffffffffffffffffffffff021916908373ffffffffffffffffffffffffffffffffffffffff16021790555080600460006101000a81548173ffffffffffffffffffffffffffffffffffffffff021916908373ffffffffffffffffffffffffffffffffffffffff16021790555050505050506200026d565b600081519050620001978162000253565b92915050565b600080600080600060a08688031215620001b657600080fd5b6000620001c68882890162000186565b9550506020620001d98882890162000186565b9450506040620001ec8882890162000186565b9350506060620001ff8882890162000186565b9250506080620002128882890162000186565b9150509295509295909350565b60006200022c8262000233565b9050919050565b600073ffffffffffffffffffffffffffffffffffffffff82169050919050565b6200025e816200021f565b81146200026a57600080fd5b50565b6125e5806200027d6000396000f3fe6080604052600436106100295760003560e01c80638b4187131461002b578063c013147614610054575b005b34801561003757600080fd5b50610052600480360361004d9190810190611978565b61007d565b005b34801561006057600080fd5b5061007b60048036036100769190810190611915565b610e6b565b005b61008561154d565b818060200190516100999190810190611a49565b90506000600360009054906101000a900473ffffffffffffffffffffffffffffffffffffffff1673ffffffffffffffffffffffffffffffffffffffff166370a08231306040518263ffffffff1660e01b81526004016100f89190611fab565b60206040518083038186803b15801561011057600080fd5b505afa158015610124573d6000803e3d6000fd5b505050506040513d601f19601f820116820180604052506101489190810190611a72565b90506000600181111561015757fe5b8260000151600181111561016757fe5b141561068e57600360009054906101000a900473ffffffffffffffffffffffffffffffffffffffff1673ffffffffffffffffffffffffffffffffffffffff1663095ea7b36000809054906101000a900473ffffffffffffffffffffffffffffffffffffffff16836040518363ffffffff1660e01b81526004016101eb929190611fc6565b602060405180830381600087803b15801561020557600080fd5b505af1158015610219573d6000803e3d6000fd5b505050506040513d601f19601f8201168201806040525061023d9190810190611a20565b5060008060009054906101000a900473ffffffffffffffffffffffffffffffffffffffff1673ffffffffffffffffffffffffffffffffffffffff1663809a9e55600360009054906101000a900473ffffffffffffffffffffffffffffffffffffffff1673eeeeeeeeeeeeeeeeeeeeeeeeeeeeeeeeeeeeeeee856040518463ffffffff1660e01b81526004016102d493929190612026565b604080518083038186803b1580156102eb57600080fd5b505afa1580156102ff573d6000803e3d6000fd5b505050506040513d601f19601f820116820180604052506103239190810190611a9b565b5090506000809054906101000a900473ffffffffffffffffffffffffffffffffffffffff1673ffffffffffffffffffffffffffffffffffffffff16633bba21dc600360009054906101000a900473ffffffffffffffffffffffffffffffffffffffff1684846040518463ffffffff1660e01b81526004016103a69392919061205d565b602060405180830381600087803b1580156103c057600080fd5b505af11580156103d4573d6000803e3d6000fd5b505050506040513d601f19601f820116820180604052506103f89190810190611a72565b506060600260405190808252806020026020018201604052801561042b5781602001602082028038833980820191505090505b509050600260009054906101000a900473ffffffffffffffffffffffffffffffffffffffff168160008151811061045e57fe5b602002602001019073ffffffffffffffffffffffffffffffffffffffff16908173ffffffffffffffffffffffffffffffffffffffff1681525050600360009054906101000a900473ffffffffffffffffffffffffffffffffffffffff16816001815181106104c857fe5b602002602001019073ffffffffffffffffffffffffffffffffffffffff16908173ffffffffffffffffffffffffffffffffffffffff16815250506060600160009054906101000a900473ffffffffffffffffffffffffffffffffffffffff1673ffffffffffffffffffffffffffffffffffffffff1663d06ca61f47846040518363ffffffff1660e01b8152600401610561929190612161565b60006040518083038186803b15801561057957600080fd5b505afa15801561058d573d6000803e3d6000fd5b505050506040513d6000823e3d601f19601f820116820180604052506105b691908101906119df565b9050600160009054906101000a900473ffffffffffffffffffffffffffffffffffffffff1673ffffffffffffffffffffffffffffffffffffffff16637ff36ab5478360018151811061060457fe5b60200260200101518530426040518663ffffffff1660e01b815260040161062e9493929190612191565b6000604051808303818588803b15801561064757600080fd5b505af115801561065b573d6000803e3d6000fd5b50505050506040513d6000823e3d601f19601f8201168201806040525061068591908101906119df565b50505050610bac565b606060026040519080825280602002602001820160405280156106c05781602001602082028038833980820191505090505b509050600260009054906101000a900473ffffffffffffffffffffffffffffffffffffffff16816000815181106106f357fe5b602002602001019073ffffffffffffffffffffffffffffffffffffffff16908173ffffffffffffffffffffffffffffffffffffffff1681525050600360009054906101000a900473ffffffffffffffffffffffffffffffffffffffff168160018151811061075d57fe5b602002602001019073ffffffffffffffffffffffffffffffffffffffff16908173ffffffffffffffffffffffffffffffffffffffff16815250506060600160009054906101000a900473ffffffffffffffffffffffffffffffffffffffff1673ffffffffffffffffffffffffffffffffffffffff1663d06ca61f84846040518363ffffffff1660e01b81526004016107f6929190612161565b60006040518083038186803b15801561080e57600080fd5b505afa158015610822573d6000803e3d6000fd5b505050506040513d6000823e3d601f19601f8201168201806040525061084b91908101906119df565b9050600160009054906101000a900473ffffffffffffffffffffffffffffffffffffffff1673ffffffffffffffffffffffffffffffffffffffff166318cbafe5848360018151811061089957fe5b60200260200101518530426040518663ffffffff1660e01b81526004016108c49594939291906121dd565b600060405180830381600087803b1580156108de57600080fd5b505af11580156108f2573d6000803e3d6000fd5b505050506040513d6000823e3d601f19601f8201168201806040525061091b91908101906119df565b50600360009054906101000a900473ffffffffffffffffffffffffffffffffffffffff1673ffffffffffffffffffffffffffffffffffffffff1663095ea7b36000809054906101000a900473ffffffffffffffffffffffffffffffffffffffff16856040518363ffffffff1660e01b815260040161099a929190611fc6565b602060405180830381600087803b1580156109b457600080fd5b505af11580156109c8573d6000803e3d6000fd5b505050506040513d601f19601f820116820180604052506109ec9190810190611a20565b5060008060009054906101000a900473ffffffffffffffffffffffffffffffffffffffff1673ffffffffffffffffffffffffffffffffffffffff1663809a9e5573eeeeeeeeeeeeeeeeeeeeeeeeeeeeeeeeeeeeeeee600360009054906101000a900473ffffffffffffffffffffffffffffffffffffffff16476040518463ffffffff1660e01b8152600401610a8393929190612026565b604080518083038186803b158015610a9a57600080fd5b505afa158015610aae573d6000803e3d6000fd5b505050506040513d601f19601f82011682018060405250610ad29190810190611a9b565b5090506000809054906101000a900473ffffffffffffffffffffffffffffffffffffffff1673ffffffffffffffffffffffffffffffffffffffff16633bba21dc600360009054906101000a900473ffffffffffffffffffffffffffffffffffffffff1647846040518463ffffffff1660e01b8152600401610b559392919061205d565b602060405180830381600087803b158015610b6f57600080fd5b505af1158015610b83573d6000803e3d6000fd5b505050506040513d601f19601f82011682018060405250610ba79190810190611a72565b505050505b8160200151600360009054906101000a900473ffffffffffffffffffffffffffffffffffffffff1673ffffffffffffffffffffffffffffffffffffffff166370a08231306040518263ffffffff1660e01b8152600401610c0c9190611fab565b60206040518083038186803b158015610c2457600080fd5b505afa158015610c38573d6000803e3d6000fd5b505050506040513d601f19601f82011682018060405250610c5c9190810190611a72565b1015610c9d576040517f08c379a0000000000000000000000000000000000000000000000000000000008152600401610c949061210b565b60405180910390fd5b60008260200151600360009054906101000a900473ffffffffffffffffffffffffffffffffffffffff1673ffffffffffffffffffffffffffffffffffffffff166370a08231306040518263ffffffff1660e01b8152600401610cff9190611fab565b60206040518083038186803b158015610d1757600080fd5b505afa158015610d2b573d6000803e3d6000fd5b505050506040513d601f19601f82011682018060405250610d4f9190810190611a72565b039050600360009054906101000a900473ffffffffffffffffffffffffffffffffffffffff1673ffffffffffffffffffffffffffffffffffffffff1663a9059cbb600460009054906101000a900473ffffffffffffffffffffffffffffffffffffffff16836040518363ffffffff1660e01b8152600401610dd1929190611fc6565b602060405180830381600087803b158015610deb57600080fd5b505af1158015610dff573d6000803e3d6000fd5b505050506040513d601f19601f82011682018060405250610e239190810190611a20565b507fa89b78c8d1240154beaf4b865d2d7cb794ac0f358c618aef3de102cf4a4ee42d83600001518242604051610e5b93929190612094565b60405180910390a1505050505050565b60008490506000610e7c86866110d4565b90506000610e8985611286565b90508573ffffffffffffffffffffffffffffffffffffffff1663095ea7b388836040518363ffffffff1660e01b8152600401610ec6929190611fc6565b602060405180830381600087803b158015610ee057600080fd5b505af1158015610ef4573d6000803e3d6000fd5b505050506040513d601f19601f82011682018060405250610f189190810190611a20565b5060606003604051908082528060200260200182016040528015610f5657816020015b610f43611572565b815260200190600190039081610f3b5790505b509050610f6383876112a3565b81600081518110610f7057fe5b6020026020010181905250610fc26040518060400160405280876001811115610f9557fe5b815260200184815250604051602001610fae919061212b565b60405160208183030381529060405261135c565b81600181518110610fcf57fe5b6020026020010181905250610fe48383611406565b81600281518110610ff157fe5b60200260200101819052506060600160405190808252806020026020018201604052801561103957816020015b6110266115de565b81526020019060019003908161101e5790505b5090506110446114bf565b8160008151811061105157fe5b60200260200101819052508473ffffffffffffffffffffffffffffffffffffffff1663a67a6a4582846040518363ffffffff1660e01b8152600401611097929190611fef565b600060405180830381600087803b1580156110b157600080fd5b505af11580156110c5573d6000803e3d6000fd5b50505050505050505050505050565b60008083905060008173ffffffffffffffffffffffffffffffffffffffff1663295c39a56040518163ffffffff1660e01b815260040160206040518083038186803b15801561112257600080fd5b505afa158015611136573d6000803e3d6000fd5b505050506040513d601f19601f8201168201806040525061115a9190810190611a72565b9050600080600090505b82811015611244578373ffffffffffffffffffffffffffffffffffffffff1663062bd3e9826040518263ffffffff1660e01b81526004016111a59190612146565b60206040518083038186803b1580156111bd57600080fd5b505afa1580156111d1573d6000803e3d6000fd5b505050506040513d601f19601f820116820180604052506111f591908101906118ec565b91508573ffffffffffffffffffffffffffffffffffffffff168273ffffffffffffffffffffffffffffffffffffffff1614156112375780945050505050611280565b8080600101915050611164565b506040517f08c379a0000000000000000000000000000000000000000000000000000000008152600401611277906120eb565b60405180910390fd5b92915050565b600061129c6002836114f890919063ffffffff16565b9050919050565b6112ab61160e565b604051806101000160405280600160088111156112c457fe5b8152602001600081526020016040518060800160405280600015158152602001600060018111156112f157fe5b81526020016000600181111561130357fe5b8152602001858152508152602001848152602001600081526020013073ffffffffffffffffffffffffffffffffffffffff1681526020016000815260200160405180602001604052806000815250815250905092915050565b61136461160e565b60405180610100016040528060088081111561137c57fe5b8152602001600081526020016040518060800160405280600015158152602001600060018111156113a957fe5b8152602001600060018111156113bb57fe5b81526020016000815250815260200160008152602001600081526020013073ffffffffffffffffffffffffffffffffffffffff16815260200160008152602001838152509050919050565b61140e61160e565b6040518061010001604052806000600881111561142757fe5b81526020016000815260200160405180608001604052806001151581526020016000600181111561145457fe5b81526020016000600181111561146657fe5b8152602001858152508152602001848152602001600081526020013073ffffffffffffffffffffffffffffffffffffffff1681526020016000815260200160405180602001604052806000815250815250905092915050565b6114c761167a565b60405180604001604052803073ffffffffffffffffffffffffffffffffffffffff1681526020016001815250905090565b600080828401905083811015611543576040517f08c379a000000000000000000000000000000000000000000000000000000000815260040161153a906120cb565b60405180910390fd5b8091505092915050565b60405180604001604052806000600181111561156557fe5b8152602001600081525090565b6040518061010001604052806000600881111561158b57fe5b81526020016000815260200161159f6116aa565b81526020016000815260200160008152602001600073ffffffffffffffffffffffffffffffffffffffff16815260200160008152602001606081525090565b6040518060400160405280600073ffffffffffffffffffffffffffffffffffffffff168152602001600081525090565b6040518061010001604052806000600881111561162757fe5b81526020016000815260200161163b6116aa565b81526020016000815260200160008152602001600073ffffffffffffffffffffffffffffffffffffffff16815260200160008152602001606081525090565b6040518060400160405280600073ffffffffffffffffffffffffffffffffffffffff168152602001600081525090565b6040518060800160405280600015158152602001600060018111156116cb57fe5b8152602001600060018111156116dd57fe5b8152602001600081525090565b6000813590506116f98161254d565b92915050565b60008151905061170e8161254d565b92915050565b600082601f83011261172557600080fd5b815161173861173382612264565b612237565b9150818183526020840193506020810190508385602084028201111561175d57600080fd5b60005b8381101561178d578161177388826118d7565b845260208401935060208301925050600181019050611760565b5050505092915050565b6000815190506117a681612564565b92915050565b600082601f8301126117bd57600080fd5b81356117d06117cb8261228c565b612237565b915080825260208301602083018583830111156117ec57600080fd5b6117f78382846124c6565b50505092915050565b60008135905061180f8161257b565b92915050565b6000815190506118248161257b565b92915050565b60006040828403121561183c57600080fd5b6118466040612237565b9050600061185684828501611815565b600083015250602061186a848285016118d7565b60208301525092915050565b60006040828403121561188857600080fd5b6118926040612237565b905060006118a2848285016116ea565b60008301525060206118b6848285016118c2565b60208301525092915050565b6000813590506118d18161258b565b92915050565b6000815190506118e68161258b565b92915050565b6000602082840312156118fe57600080fd5b600061190c848285016116ff565b91505092915050565b6000806000806080858703121561192b57600080fd5b6000611939878288016116ea565b945050602061194a878288016116ea565b935050604061195b878288016118c2565b925050606061196c87828801611800565b91505092959194509250565b60008060006080848603121561198d57600080fd5b600061199b868287016116ea565b93505060206119ac86828701611876565b925050606084013567ffffffffffffffff8111156119c957600080fd5b6119d5868287016117ac565b9150509250925092565b6000602082840312156119f157600080fd5b600082015167ffffffffffffffff811115611a0b57600080fd5b611a1784828501611714565b91505092915050565b600060208284031215611a3257600080fd5b6000611a4084828501611797565b91505092915050565b600060408284031215611a5b57600080fd5b6000611a698482850161182a565b91505092915050565b600060208284031215611a8457600080fd5b6000611a92848285016118d7565b91505092915050565b60008060408385031215611aae57600080fd5b6000611abc858286016118d7565b9250506020611acd858286016118d7565b9150509250929050565b6000611ae38383611b2a565b60208301905092915050565b6000611afb8383611e27565b905092915050565b6000611b0f8383611f5e565b60408301905092915050565b611b2481612424565b82525050565b611b3381612390565b82525050565b611b4281612390565b82525050565b6000611b53826122e8565b611b5d818561233b565b9350611b68836122b8565b8060005b83811015611b99578151611b808882611ad7565b9750611b8b83612314565b925050600181019050611b6c565b5085935050505092915050565b6000611bb1826122f3565b611bbb818561234c565b935083602082028501611bcd856122c8565b8060005b85811015611c095784840389528151611bea8582611aef565b9450611bf583612321565b925060208a01995050600181019050611bd1565b50829750879550505050505092915050565b6000611c26826122fe565b611c30818561235d565b9350611c3b836122d8565b8060005b83811015611c6c578151611c538882611b03565b9750611c5e8361232e565b925050600181019050611c3f565b5085935050505092915050565b611c82816123a2565b82525050565b6000611c9382612309565b611c9d818561236e565b9350611cad8185602086016124d5565b611cb681612508565b840191505092915050565b611cca81612436565b82525050565b611cd98161245a565b82525050565b611ce88161246c565b82525050565b611cf78161247e565b82525050565b611d0681612490565b82525050565b611d1581612490565b82525050565b6000611d28601b8361237f565b91507f536166654d6174683a206164646974696f6e206f766572666c6f7700000000006000830152602082019050919050565b6000611d6860248361237f565b91507f4e6f206d61726b6574496420666f756e6420666f722070726f7669646564207460008301527f6f6b656e000000000000000000000000000000000000000000000000000000006020830152604082019050919050565b6000611dce60248361237f565b91507f4e6f7420656e6f7567682066756e647320746f2072657061792044794478206c60008301527f6f616421000000000000000000000000000000000000000000000000000000006020830152604082019050919050565b600061016083016000830151611e406000860182611cd0565b506020830151611e536020860182611f8d565b506040830151611e666040860182611f09565b506060830151611e7960c0860182611f8d565b506080830151611e8c60e0860182611f8d565b5060a0830151611ea0610100860182611b2a565b5060c0830151611eb4610120860182611f8d565b5060e0830151848203610140860152611ecd8282611c88565b9150508091505092915050565b604082016000820151611ef06000850182611cfd565b506020820151611f036020850182611f8d565b50505050565b608082016000820151611f1f6000850182611c79565b506020820151611f326020850182611cdf565b506040820151611f456040850182611cee565b506060820151611f586060850182611f8d565b50505050565b604082016000820151611f746000850182611b2a565b506020820151611f876020850182611f8d565b50505050565b611f968161241a565b82525050565b611fa58161241a565b82525050565b6000602082019050611fc06000830184611b1b565b92915050565b6000604082019050611fdb6000830185611b39565b611fe86020830184611f9c565b9392505050565b600060408201905081810360008301526120098185611c1b565b9050818103602083015261201d8184611ba6565b90509392505050565b600060608201905061203b6000830186611cc1565b6120486020830185611cc1565b6120556040830184611f9c565b949350505050565b60006060820190506120726000830186611cc1565b61207f6020830185611f9c565b61208c6040830184611f9c565b949350505050565b60006060820190506120a96000830186611d0c565b6120b66020830185611f9c565b6120c36040830184611f9c565b949350505050565b600060208201905081810360008301526120e481611d1b565b9050919050565b6000602082019050818103600083015261210481611d5b565b9050919050565b6000602082019050818103600083015261212481611dc1565b9050919050565b60006040820190506121406000830184611eda565b92915050565b600060208201905061215b6000830184611f9c565b92915050565b60006040820190506121766000830185611f9c565b81810360208301526121888184611b48565b90509392505050565b60006080820190506121a66000830187611f9c565b81810360208301526121b88186611b48565b90506121c76040830185611b1b565b6121d46060830184611f9c565b95945050505050565b600060a0820190506121f26000830188611f9c565b6121ff6020830187611f9c565b81810360408301526122118186611b48565b90506122206060830185611b1b565b61222d6080830184611f9c565b9695505050505050565b6000604051905081810181811067ffffffffffffffff8211171561225a57600080fd5b8060405250919050565b600067ffffffffffffffff82111561227b57600080fd5b602082029050602081019050919050565b600067ffffffffffffffff8211156122a357600080fd5b601f19601f8301169050602081019050919050565b6000819050602082019050919050565b6000819050602082019050919050565b6000819050602082019050919050565b600081519050919050565b600081519050919050565b600081519050919050565b600081519050919050565b6000602082019050919050565b6000602082019050919050565b6000602082019050919050565b600082825260208201905092915050565b600082825260208201905092915050565b600082825260208201905092915050565b600082825260208201905092915050565b600082825260208201905092915050565b600061239b826123fa565b9050919050565b60008115159050919050565b60008190506123bc82612519565b919050565b60008190506123cf82612526565b919050565b60008190506123e282612533565b919050565b60008190506123f582612540565b919050565b600073ffffffffffffffffffffffffffffffffffffffff82169050919050565b6000819050919050565b600061242f826124a2565b9050919050565b600061244182612448565b9050919050565b6000612453826123fa565b9050919050565b6000612465826123ae565b9050919050565b6000612477826123c1565b9050919050565b6000612489826123d4565b9050919050565b600061249b826123e7565b9050919050565b60006124ad826124b4565b9050919050565b60006124bf826123fa565b9050919050565b82818337600083830152505050565b60005b838110156124f35780820151818401526020810190506124d8565b83811115612502576000848401525b50505050565b6000601f19601f8301169050919050565b6009811061252357fe5b50565b6002811061253057fe5b50565b6002811061253d57fe5b50565b6002811061254a57fe5b50565b61255681612390565b811461256157600080fd5b50565b61256d816123a2565b811461257857600080fd5b50565b6002811061258857600080fd5b50565b6125948161241a565b811461259f57600080fd5b5056fea365627a7a72315820709d55e0764dc0f1feb9c7b739738894808a8f44dc532a73fc3a272e2d15575c6c6578706572696d656e74616cf564736f6c63430005100040",
  "source": "pragma solidity ^0.5.0;\npragma experimental ABIEncoderV2;\n\nimport \"@studydefi/money-legos/dydx/contracts/DydxFlashloanBase.sol\";\nimport \"@studydefi/money-legos/dydx/contracts/ICallee.sol\";\nimport { KyberNetworkProxy as IKyberNetworkProxy } from '@studydefi/money-legos/kyber/contracts/KyberNetworkProxy.sol';\n\nimport \"@openzeppelin/contracts/token/ERC20/IERC20.sol\";\nimport \"./IUniswapV2Router01.sol\";\nimport \"./IUniswapV2Router02.sol\";\nimport \"./IWeth.sol\";\n\ncontract FlashLoan is ICallee, DydxFlashloanBase {\n  enum Direction { KyberToUniswap, UniswapToKyber}\n    struct ArbInfo {\n        Direction direction;\n        uint256 repayAmount;\n    }\n\nevent NewArbitrage(\n  Direction direction,\n  uint profit,\n  uint date\n);\n\nIKyberNetworkProxy kyber;\nIUniswapV2Router02 uniswap;\nIWeth weth;\nIERC20 dai;\naddress constant KYBER_ETH_ADDRESS = 0xEeeeeEeeeEeEeeEeEeEeeEEEeeeeEeeeeeeeEEeE;\naddress beneficiary;\n\nconstructor(\n  address kyberAddress,\n  address uniswapAddress,\n  address wethAddress,\n  address daiAddress,\n  address beneficiaryAddress\n) public {\n  kyber = IKyberNetworkProxy(kyberAddress);\n  uniswap = IUniswapV2Router02(uniswapAddress);\n  weth = IWeth(wethAddress);\n  dai = IERC20(daiAddress);\n  beneficiary = beneficiaryAddress;\n}\n    // This is the function that will be called postLoan\n    // i.e. Encode the logic to handle your flashloaned funds here\n    function callFunction(\n        address sender,\n        Account.Info memory account,\n        bytes memory data\n    ) public {\n        ArbInfo memory arbInfo = abi.decode(data, (ArbInfo));\n        uint256 balanceDai = dai.balanceOf(address(this));\n\n\n\n      if(arbInfo.direction == Direction.KyberToUniswap) {\n      // Buy ETH on Kyber\n      dai.approve(address(kyber),balanceDai);\n      (uint expectedRate, ) = kyber.getExpectedRate(\n        dai,\n        IERC20(KYBER_ETH_ADDRESS),\n        balanceDai\n      );\n      kyber.swapTokenToEther(dai, balanceDai, expectedRate);\n\n      // Sell ETH on Uniswap\n      address[] memory path = new address[](2);\n      path[0] = address(weth);\n      path[1] = address(dai);\n      uint [] memory minOuts = uniswap.getAmountsOut(address(this).balance, path );\n      uniswap.swapExactETHForTokens.value(address(this).balance) (\n        minOuts[1],\n        path,\n        address(this),\n        now\n      );\n      } else {\n        // Buy ETH on Uniswap\n        address[] memory path = new address[](2);\n        path[0] = address(weth);\n        path[1] = address(dai);\n        uint [] memory minOuts = uniswap.getAmountsOut(balanceDai, path );\n        uniswap.swapExactTokensForETH(\n          balanceDai,\n          minOuts[1],\n          path,\n          address(this),\n          now\n        );\n      // Sell ETH on Kyber\n            dai.approve(address(kyber),balanceDai);\n      (uint expectedRate, ) = kyber.getExpectedRate(\n        IERC20(KYBER_ETH_ADDRESS),\n        dai,\n        address(this).balance\n      );\n      kyber.swapTokenToEther(\n        dai,\n        address(this).balance,\n        expectedRate\n      );\n      }\n\n      require(\n        dai.balanceOf(address(this)) >= arbInfo.repayAmount,\n        \"Not enough funds to repay DyDx load!\"\n      );\n\n      uint profit = dai.balanceOf(address(this)) - arbInfo.repayAmount;\n      dai.transfer(beneficiary, profit);\n      emit NewArbitrage(arbInfo.direction, profit, now);\n\n}\n\n    function initiateFlashloan(address _solo, address _token, uint256 _amount, Direction _direction)\n        external\n    {\n        ISoloMargin solo = ISoloMargin(_solo);\n\n        // Get marketId from token address\n        uint256 marketId = _getMarketIdFromTokenAddress(_solo, _token);\n\n        // Calculate repay amount (_amount + (2 wei))\n        // Approve transfer from\n        uint256 repayAmount = _getRepaymentAmountInternal(_amount);\n        IERC20(_token).approve(_solo, repayAmount);\n\n        // 1. Withdraw $\n        // 2. Call callFunction(...)\n        // 3. Deposit back $\n        Actions.ActionArgs[] memory operations = new Actions.ActionArgs[](3);\n\n        operations[0] = _getWithdrawAction(marketId, _amount);\n        operations[1] = _getCallAction(\n            // Encode MyCustomData for callFunction\n            abi.encode(ArbInfo({direction: _direction, repayAmount: repayAmount}))\n        );\n        operations[2] = _getDepositAction(marketId, repayAmount);\n\n        Account.Info[] memory accountInfos = new Account.Info[](1);\n        accountInfos[0] = _getAccountInfo();\n\n        solo.operate(accountInfos, operations);\n    }\n\n    function() external payable {}\n}",
  "sourcePath": "/Users/alirangwala/Documents/PostHR-Projects/Arbitrage-Trader/contracts/Flashloan.sol",
  "compiler": {
    "name": "solc",
    "version": "0.5.16+commit.9c3226ce.Emscripten.clang"
  },
  "schemaVersion": "3.3.4",
  "updatedAt": "2021-03-03T22:19:02.109Z",
  "devdoc": {
    "methods": {}
  },
  "userdoc": {
    "methods": {}
  }
}